:100000000C9471000C9499000C9499000C94990034
:100010000C9499000C9499000C9499000C949900FC
:100020000C9499000C9499000C9499000C949900EC
:100030000C9499000C9499000C9499000C949900DC
:100040000C9479050C9499000C9499000C949900E7
:100050000C9499000C9499000C9499000C949900BC
:100060000C9499000C94990005A84CCDB2D44EB9CB
:100070003836A9020C50B9918688083CA6AAAA2A4B
:10008000BE000000803F0000000023002600290081
:1000900000000000240027002A00000000002500C6
:1000A00028002B00040404040404040402020202D5
:1000B000020203030303030301020408102040802B
:1000C00001020408102001020408102000000008AA
:1000D000000201000003040700000000000000000F
:1000E0003E0711241FBECFEFD8E0DEBFCDBF11E029
:1000F000A0E0B1E0EEE9F4E102C005900D92AC326F
:10010000B107D9F721E0ACE2B1E001C01D92A13501
:10011000B207E1F710E0C1E7D0E004C02197FE018B
:100120000E94470AC037D107C9F70E9408060C94FD
:100130004D0A0C940000AF92BF92CF92DF92EF92E3
:10014000FF920F931F93CF93DF936C017B018B0181
:10015000040F151FEB015E01AE18BF08C017D107D1
:1001600059F06991D601ED91FC910190F081E02D5B
:10017000C6010995892B79F7C501DF91CF911F91B0
:100180000F91FF90EF90DF90CF90BF90AF900895C8
:1001900090E0FC01E453FF4F2491FC01E854FF4F31
:1001A0003491FC01EC55FF4FE491EE23C9F022237A
:1001B00039F0233001F1A8F4213019F1223029F16E
:1001C000F0E0EE0FFF1FE656FF4FA591B4918FB7F9
:1001D000F894EC91611126C030953E233C938FBF7B
:1001E00008952730A9F02830C9F0243049F78091CC
:1001F00080008F7D03C0809180008F778093800086
:10020000DFCF84B58F7784BDDBCF84B58F7DFBCF07
:100210008091B0008F778093B000D2CF8091B000F2
:100220008F7DF9CF3E2BDACFCF93DF9390E0FC01A7
:10023000E854FF4F24918C559F4FFC0184918823F3
:10024000D1F090E0880F991FFC01E057FF4FA59176
:10025000B491FC01E656FF4FC591D49161110EC0D7
:100260009FB7F8948C91E22FE0958E238C93288190
:10027000E223E8839FBFDF91CF9108958FB7F89471
:10028000EC91E22BEC938FBFF6CF3FB7F8948091BF
:10029000310190913201A0913301B091340126B522
:1002A000A89B05C02F3F19F00196A11DB11D3FBFAE
:1002B000BA2FA92F982F8827BC01CD01620F711D7D
:1002C000811D911D42E0660F771F881F991F4A9577
:1002D000D1F708958F929F92AF92BF92CF92DF9203
:1002E000EF92FF924B015C010E9445016B017C0182
:1002F0000E9445016C197D098E099F09683E734073
:1003000081059105A8F321E0821A9108A108B1089E
:1003100088EEC80E83E0D81EE11CF11C8114910404
:10032000A104B10429F7FF90EF90DF90CF90BF9028
:10033000AF909F908F900895089590E080E0089589
:10034000FC0101900020E9F73197AF01481B590BE0
:10035000BC0189E391E00C949B008F929F92AF9235
:10036000BF920F931F93CF93DF93CDB7DEB7A197C3
:100370000FB6F894DEBF0FBECDBF19A2423008F40D
:100380004AE08E010F5D1F4F842E912CB12CA12CC1
:10039000A50194010E94250AE62FB901CA01EA309D
:1003A000F4F4E05DD801EE938D01232B242B252B53
:1003B00079F790E080E0109719F0CD010E94A0013C
:1003C000A1960FB6F894DEBF0FBECDBFDF91CF91DF
:1003D0001F910F91BF90AF909F908F900895E95C0F
:1003E000E1CFCF93DF93EC0160E08E810E94C800E3
:1003F00061E08E810E94C80060E08E810E94C8008A
:100400008BE891E00197F1F7DF91CF910895CF92BA
:10041000DF92EF92FF920F931F93CF93DF936C01C4
:100420007C0187E0E80EF11CD0E0C0E0062F10E070
:10043000B8010C2E02C0759567950A94E2F76170B9
:10044000F70181917F010E94C8002196C430D10537
:1004500079F7C601DF91CF911F910F91FF90EF9037
:10046000DF90CF900C94F101CF92DF92EF92FF9248
:100470000F931F93CF93DF93EC01F62E642F8C81A3
:100480000E94C8008D818F3F19F060E00E94C80073
:100490000F2D10E08F8584FF25C06E0187E0C80E08
:1004A000D11CF12CE12CB8010E2C02C0759567957A
:1004B0000A94E2F76170F60181916F010E94C80011
:1004C000FFEFEF1AFF0A88E0E816F10461F7CE01AA
:1004D000DF91CF911F910F91FF90EF90DF90CF9020
:1004E0000C94F101B80184E0759567958A95E1F760
:1004F000CE010E9407026F2DCE01DF91CF911F9197
:100500000F91FF90EF90DF90CF900C94070240E0A6
:10051000682F89E391E00C943402CF93DF9382300B
:1005200029F49091480198609093480180934C0180
:1005300010924D0180E480934E0180E180934F0141
:1005400080E58093500161E080913D010E9414019B
:1005500080913E018F3F19F061E00E94140161E03B
:1005600080913F010E941401C9E3D1E09E0129530B
:1005700031408091480184FD0BC084E090E02196D9
:100580002817390744F461E08E810E941401EECFF0
:1005900088E090E0F4CF8BE39DE00197F1F760E015
:1005A00080913D010E94C80060E080913F010E945F
:1005B000C80080913E018F3F19F060E00E94C800A2
:1005C0008091480184FD39C063E089E391E00E9495
:1005D0000702CBE4D6E4CE010197F1F763E089E3AB
:1005E00091E00E9407022197F1F763E089E391E02F
:1005F0000E94070283E592E00197F1F762E089E348
:1006000091E00E9407028091480180620E94870267
:1006100084E0809349018CE00E94870281E00E947F
:1006200087028BE39FE10197F1F782E080934A0113
:1006300086E0DF91CF910C94870280620E9487024E
:100640008BE496E40197F1F78091480180620E9463
:10065000870283E592E00197F1F78091480180627B
:100660000E948702D0CF41E00E94340281E090E0F6
:1006700008958F929F92AF92BF92CF92DF92EF92A6
:10068000FF92CF936B017C0181E00E9487028BE394
:100690009FE10197F1F7E1E080914C018111E0E0E9
:1006A000E195F0E0E75CFE4F848980680E94870254
:1006B0008AE191E00E94A001A7019601C701B6015D
:1006C0000E94D709882399F080E291E00E94A0015E
:1006D00064E170E080E090E0CF91FF90EF90DF90D8
:1006E000CF90BF90AF909F908F900C946A0146017D
:1006F0005701E894B7F82FEF3FEF4FE75FE7C501E9
:10070000B4010E94D70981110DC02FEF3FEF4FE7D1
:100710005FE7C501B4010E94C90718161CF484E202
:1007200091E0D4CF2FEF3FEF4FE75FE4C701B60171
:100730000E94650918161CF488E291E0C7CF2FEFDC
:100740003FEF4FE75FECC701B6010E94C90787FD85
:10075000F3CF20E030E0A901C701B6010E94C9072C
:1007600087FF0AC041E06DE289E391E00E94340214
:10077000F7FAF094F7F8F0942EE632E143E05AE30A
:10078000C701B6010E945D076B017C010E9445080C
:100790004B015C010E9474089B01AC01C701B601CA
:1007A0000E945C076B017C014AE0C501B4010E9414
:1007B000AD0141E06EE289E391E00E943402C4E0C1
:1007C000C15009F485CF20E030E040E251E4C70198
:1007D000B6010E946A094B015C010E9445086B0149
:1007E000F12CE12C4AE0C701B6010E94AD01C7011E
:1007F000B6010E9474089B01AC01C501B4010E94BE
:100800005C076B017C01DCCF4F925F926F927F920D
:100810008F929F92AF92BF92CF92DF92EF92FF9210
:100820000F931F93C0903501D0903601E0903701AF
:10083000F0903801E5ECF0E06491E1EBF0E0E49158
:10084000F0E0EE0FFF1FEA57FF4F8591949100E40F
:1008500012E42FE030E0462F0E94C30561157105B8
:100860008105910529F06F5F7F4F8F4F9F4F9F70DC
:100870000E94740820E034E244E759E40E94D30760
:1008800023E634E14DE953E40E946A090E94CE0751
:100890004B015C0120E030E0A9010E94C90787FDFF
:1008A00091C08092350190923601A0923701B092AA
:1008B00038018090350190903601A0903701B090BA
:1008C000380120E030E0A901C501B4010E946509AA
:1008D000181684F42AE037ED43E25CE3C501B40165
:1008E0000E945D0760933501709336018093370154
:1008F0009093380120E030E040E85FE360913501FB
:100900007091360180913701909138010E946509FC
:10091000181664F480E090E0A0E8BFE3809335010E
:1009200090933601A0933701B09338018090350140
:1009300090903601A0903701B090380120E030E06F
:10094000A901C501B4010E94650918160CF04BC03D
:1009500020E030E040E85FE3C501B4010E945C079D
:100960002B013C0120E030E0A9010E946509181626
:100970000CF45FC020E030E040E85FE3C501B40163
:100980000E945C072DEB37E346E855EB0E946509B2
:1009900018160CF458C0640175012DEB37E346E8D6
:1009A00055E3B601C7010E94C90787FF85C00E94B1
:1009B000040460933501709336018093370190935E
:1009C00038017AC02AE037ED43E25CE3C501B401A7
:1009D0000E945C0760933501709336018093370164
:1009E0009093380166CFB7FAB094B7F8B09420E08E
:1009F00030E040E85FE3C501B4010E945C072B01D1
:100A00003C0120E030E0A9010E946509181624F19C
:100A100020E030E040E85FE3C501B4010E945C07DC
:100A20002DEB37E346E855EB0E94650918165CF09C
:100A30001DC02DEB37E346E855E3C301B2010E9428
:100A4000C90787FFA8CFC0923501D0923601E09246
:100A50003701F09238010AC02DEB37E346E855E341
:100A6000C301B2010E94C90787FDEDCFC0903501D7
:100A7000D0903601E0903701F090380120E030E06E
:100A8000A901B601C7010E94650918160CF485CFAB
:100A900020E030E0A901B601C7010E94C90787FF25
:100AA0007CCF2DEB37E346E855EBB601C7010E943A
:100AB000650918160CF47BCF6AE070E080E090E0E6
:100AC0000E946A0160913501709136018091370171
:100AD000909138011F910F91FF90EF90DF90CF9090
:100AE000BF90AF909F908F907F906F905F904F904E
:100AF00008951F920F920FB60F9211242F933F93D8
:100B00008F939F93AF93BF9380912D0190912E016E
:100B1000A0912F01B091300130912C0123E0230FDF
:100B20002D3758F50196A11DB11D20932C018093FE
:100B30002D0190932E01A0932F01B093300180914D
:100B4000310190913201A0913301B09134010196AD
:100B5000A11DB11D8093310190933201A093330107
:100B6000B0933401BF91AF919F918F913F912F919D
:100B70000F900FBE0F901F90189526E8230F029636
:100B8000A11DB11DD2CFCF92DF92EF92FF920F93B2
:100B90001F93E82FF92F05C00150110921093109D0
:100BA00061F1908196239417B9F305C001501109A2
:100BB0002109310911F1908196239413F7CFC12CAB
:100BC000D12CE12CF12C0AC08FEFC81AD80AE80A00
:100BD000F80A0C151D052E053F0579F08081862346
:100BE000841791F36C2D7D2D8E2D9F2D1F910F91CC
:100BF000FF90EF90DF90CF90089560E070E080E08C
:100C000090E01F910F91FF90EF90DF90CF900895AB
:100C1000789484B5826084BD84B5816084BD85B5D7
:100C2000826085BD85B5816085BD80916E008160E3
:100C300080936E0010928100809181008260809389
:100C4000810080918100816080938100809180008B
:100C50008160809380008091B10084608093B100B6
:100C60008091B00081608093B00080917A008460B0
:100C700080937A0080917A00826080937A008091DC
:100C80007A00816080937A0080917A0080688093F6
:100C90007A001092C10060E08DE00E941401109271
:100CA0003501109236011092370110923801CCE0D4
:100CB000D1E08881229661E00E94140121E0CA31CE
:100CC000D207B9F782E00E948D0240E0842E40E016
:100CD000942E0E9404046B017C01C0923501D092D5
:100CE0003601E0923701F092380120E030E0A901AE
:100CF0000E946509181624F0F7FAF094F7F8F094BA
:100D0000C701B6010E943903409035015090360169
:100D1000609037017090380120E030E0A901C301F4
:100D2000B2010E946509181624F077FA709477F8DA
:100D300070943CE0A32E31E0B32ED0E0C0E010E090
:100D400000E0C0903501D0903601E0903701F0907E
:100D5000380120E030E0A901C701B6010E94650911
:100D600018160CF04AC023E333E343E75FE3C701FF
:100D7000B6010E94C90787FF4BC0F5018081F2E0F0
:100D8000AF0EB11C61E00E94C8006AE070E080E034
:100D900090E00E946A010E9404046B017C01C092F1
:100DA0003501D0923601E0923701F092380120E00F
:100DB00030E0A9010E946509A701960118160CF000
:100DC0005058C301B2010E94C90787FF10C020E03C
:100DD00030E0A901C701B6010E9465098E01260114
:100DE0003701181624F077FA709477F870942196EA
:100DF000C730D10509F0A5CF0BC023E333E343E7A8
:100E00005FEBC701B6010E94650918160CF4B5CF57
:100E1000CE01880F991F9C01245F3E4F79012197D5
:100E200032E0E31AF1080C171D0734F460E0F70113
:100E300080810E94C800F3CF0E9404046B017C01F2
:100E4000C0923501D0923601E0923701F09238011C
:100E500020E030E0A9010E946509181624F0F7FA95
:100E6000F094F7F8F094C701B6010E943903811499
:100E7000910409F42ECF0E9400002BCFE9E3F1E0AA
:100E80001382128284E091E0918380838CE08483DA
:100E90008FEF85838BE086838AE0878389E0808774
:100EA00088E0818787E082871386148615861686F8
:100EB000178681E00C948D025058BB27AA270E9408
:100EC00074070C9417090E94DE0838F00E94E508A8
:100ED00020F039F49F3F19F426F40C94DB080EF44B
:100EE000E095E7FB0C94D508E92F0E943C0958F3E4
:100EF000BA17620773078407950720F079F4A6F5FF
:100F00000C945E090EF4E0950B2EBA2FA02D0B0168
:100F1000B90190010C01CA01A0011124FF27591B3E
:100F200099F0593F50F4503E68F11A16F040A22F44
:100F3000232F342F4427585FF3CF469537952795B5
:100F4000A795F0405395C9F77EF41F16BA0B620BB4
:100F5000730B840BBAF09150A1F0FF0FBB1F661FFB
:100F6000771F881FC2F70EC0BA0F621F731F841F3E
:100F700048F4879577956795B795F7959E3F08F064
:100F8000B0CF9395880F08F09927EE0F9795879526
:100F900008950E94B10808F481E008950E94EE08C7
:100FA000E3950C9428090E94E7070C9417090E9406
:100FB000E50858F00E94DE0840F029F45F3F29F070
:100FC0000C94D50851110C945F090C94DB080E9415
:100FD0003C0968F39923B1F3552391F3951B550B05
:100FE000BB27AA2762177307840738F09F5F5F4FFC
:100FF000220F331F441FAA1FA9F335D00E2E3AF03B
:10100000E0E832D091505040E695001CCAF72BD052
:10101000FE2F29D0660F771F881FBB1F26173707A3
:101020004807AB07B0E809F0BB0B802DBF01FF27D5
:1010300093585F4F3AF09E3F510578F00C94D508D5
:101040000C945F095F3FE4F3983ED4F3869577955F
:101050006795B795F7959F5FC9F7880F911D96958E
:10106000879597F90895E1E0660F771F881FBB1FEA
:10107000621773078407BA0720F0621B730B840B97
:10108000BA0BEE1F88F7E09508950E94440988F096
:101090009F5798F0B92F9927B751B0F0E1F0660F3C
:1010A000771F881F991F1AF0BA95C9F714C0B1307D
:1010B00091F00E945E09B1E008950C945E09672FDB
:1010C000782F8827B85F39F0B93FCCF386957795AC
:1010D0006795B395D9F73EF4909580957095619595
:1010E0007F4F8F4F9F4F0895E89409C097FB3EF4C0
:1010F00090958095709561957F4F8F4F9F4F992365
:10110000A9F0F92F96E9BB279395F69587957795E2
:101110006795B795F111F8CFFAF4BB0F11F460FFA2
:101120001BC06F5F7F4F8F4F9F4F16C0882311F0FA
:1011300096E911C0772321F09EE8872F762F05C00E
:10114000662371F096E8862F70E060E02AF09A95A9
:10115000660F771F881FDAF7880F9695879597F99E
:101160000895990F0008550FAA0BE0E8FEEF161638
:101170001706E807F907C0F012161306E407F5078B
:1011800098F0621B730B840B950B39F40A2661F0FF
:10119000232B242B252B21F408950A2609F4A140A2
:1011A000A6958FEF811D811D089597F99F6780E8AF
:1011B00070E060E008959FEF80EC089500240A94A9
:1011C0001616170618060906089500240A94121622
:1011D00013061406050608950C94DB080E944409C2
:1011E000D8F3E894E0E0BB279F57F0F02AED3FE00A
:1011F00049EC06C0EE0FBB0F661F771F881F28F053
:10120000B23A62077307840728F0B25A620B730B75
:10121000840BE3959A9572F7803830F49A95BB0F5A
:10122000661F771F881FD2F790480C94DE09092E9D
:101230000394000C11F4882352F0BB0F40F4BF2B31
:1012400011F460FF04C06F5F7F4F8F4F9F4F089571
:10125000EF93E0FF07C0A2EA2AED3FE049EC5FEB25
:101260000E9474070E9417090F90039401FC905884
:10127000E8E6F0E00C94EA0957FD9058440F551F3A
:1012800059F05F3F71F04795880F97FB991F61F008
:101290009F3F79F087950895121613061406551F7F
:1012A000F2CF4695F1DF08C0161617061806991FEB
:1012B000F1CF86957105610508940895E894BB27E0
:1012C00066277727CB0197F908950E94B10808F4A3
:1012D0008FEF08950E947D090C9417090E94DE0883
:1012E00038F00E94E50820F0952311F00C94D50801
:1012F0000C94DB0811240C945F090E943C0970F3E4
:10130000959FC1F3950F50E0551F629FF001729FAA
:10131000BB27F00DB11D639FAA27F00DB11DAA1FB9
:10132000649F6627B00DA11D661F829F2227B00D06
:10133000A11D621F739FB00DA11D621F839FA00D91
:10134000611D221F749F3327A00D611D231F849FE1
:10135000600D211D822F762F6A2F11249F57504038
:101360009AF0F1F088234AF0EE0FFF1FBB1F661FB3
:10137000771F881F91505040A9F79E3F510580F07C
:101380000C94D5080C945F095F3FE4F3983ED4F3C6
:10139000869577956795B795F795E7959F5FC1F720
:1013A000FE2B880F911D9695879597F908950E94B9
:1013B000B108880B990B08959F3F31F0915020F4AC
:1013C000879577956795B795880F911D9695879521
:1013D00097F908959F938F937F936F93FF93EF9364
:1013E0009B01AC010E946A09EF91FF910E94FE09E6
:1013F0002F913F914F915F910C946A09DF93CF93A6
:101400001F930F93FF92EF92DF927B018C01689400
:1014100006C0DA2EEF010E947D09FE01E894A59135
:101420002591359145915591A6F3EF010E947407DE
:10143000FE019701A801DA9469F7DF90EF90FF9021
:101440000F911F91CF91DF910895A1E21A2EAA1B4F
:10145000BB1BFD010DC0AA1FBB1FEE1FFF1FA21764
:10146000B307E407F50720F0A21BB30BE40BF50B61
:10147000661F771F881F991F1A9469F760957095EA
:10148000809590959B01AC01BD01CF010895EE0FB1
:0E149000FF1F0590F491E02D0994F894FFCF12
:10149E000000000033039B009D019C010000010031
:1014AE00020003000400050006007066203D2000C7
:0C14BE006E616E00696E66006F7666005D
:00000001FF
